:0B007B00EF1FAC0670011E4C70F62257
:070086007FA07E8602007BD3
:07008D00D288D2A8D2AF22F5
:07009400D28AD2AAD2AF22EA
:100006008B088A09890AE5B0C454F0FF64F0602FB2
:10001600EF2490601B24C0601224D0600924107065
:1000260012750D01800D750D028008750D03800394
:10003600750D04E50DB50507AA09A90A1200A22245
:07009B00D288D2A8D2AF22E7
:0D00620012008D050CE50C70FA050B80F600
:03000300020046B2
:10004600C0E0C0D0E50CB4E80EE50BB4030963A02C
:0C005600FF750B00750C00D0D0D0E0321C
:0300000002006F8C
:0C006F00787FE4F6D8FD75810D02006278
:0600A2008A838982E473E9
:00000001FF
