:0E0163002048454C4C4F20574F524C44200032
:0B017D00EF1FAC0670011E4C70F62254
:07019C007FA07E8602017DB9
:1000F900C2A58F807F017E0012010AD2A77F057EEB
:0101090000F5
:10010A00D3EF9400EE9400400F7DC77C01DCFEDD46
:09011A00FAEF1F70EB1E80E822D1
:0A018800C2A7C2A61200F9C2A72206
:0A019200C2A7D2A61200F9C2A722EC
:10014A007F381201887F0C1201887F061201887F8E
:09015A00011201887F8002018876
:1001230078087C007D007BFF7A0179637E007F0E77
:100133001200D312014AE4FB74082BF8E6FF120104
:07014300920BBB0EF380FEDE
:0300000002017189
:0C017100787FE4F6D8FD758115020123AB
:10000300E709F608DFFA8046E709F208DFFA803EDF
:1000130088828C83E709F0A3DFFA8032E309F608CC
:10002300DFFA8078E309F208DFFA807088828C8334
:10003300E309F0A3DFFA806489828A83E0A3F608E8
:10004300DFFA805889828A83E0A3F208DFFA804CC2
:1000530080D280FA80C680D4806980F28033801099
:1000630080A680EA809A80A880DA80E280CA803302
:1000730089828A83ECFAE493A3C8C582C8CCC5837A
:10008300CCF0A3C8C582C8CCC583CCDFE9DEE7804A
:100093000D89828A83E493A3F608DFF9ECFAA9F0C9
:1000A300EDFB2289828A83ECFAE0A3C8C582C8CC1F
:1000B300C583CCF0A3C8C582C8CCC583CCDFEADE38
:1000C300E880DB89828A83E493A3F208DFF980CC9A
:1000D30088F0EF60010E4E60C388F0ED2402B40493
:1000E3000050B9F582EB2402B4040050AF2323453A
:0600F3008223900053730C
:00000001FF
