:0B007600EF1FAC0670011E4C70F6225C
:070081007FA07E86020076DD
:07008800D288D2A8D2AF22FA
:07008F00D28AD2AAD2AF22EF
:100006008B088A09890AE5B0C454F0FF64F0602FB2
:10001600EF2490601B24C0601224D0600924107065
:1000260012750B01800D750B028008750B0380039A
:10003600750B04E50BB50507AA09A90A12009D224E
:07009600D288D2A8D2AF22EC
:0500A30012008880FE40
:03000300020046B2
:10004600C0E0C0D075D000C004C006C0077FE87EFF
:100056000312007620B202B2A0D007D006D004D098
:04006600D0D0E032E4
:0300000002006A91
:0C006A00787FE4F6D8FD75810B0200A33E
:06009D008A838982E473EE
:00000001FF
