:1005C300060A00000000000001080320401000009C
:1005D3000000000000000000000000000000000018
:1005E3000000000000000000000000000000000008
:1005F30000000000000000000000000000000000F8
:100603000000000000000000000000000000105285
:1006130000020001000000000000000000000000D4
:1006230001500301640301510001650001630101ED
:020633000900BC
:0408C4007F017E0032
:0B08C800EF1FAC0670011E4C70F62202
:0708EA007FA07E860208C812
:10084600C2B6C2B5E4FEEFC4131313540124FF92DB
:10085600B4EF25E0FFD2B60000C2B60EBE08E7D25E
:06086600B50000C2B5223E
:10076500AE077F017C01E4FAEAC39E5007EF25E05E
:10077500FF0A80F4E4FAEAC39D5007EC25E0FC0A81
:1007850080F4EB6007C374FF9CFE8002AE808E8010
:0F0795001208467F647E001208C8E4FF0208467F
:1006E400D2B6D2B5E4FEEFC4131313540124FF921F
:1006F400B4EF25E0FFC2B60000D2B60EBE08E7E4B0
:10070400FEEDC4131313540124FF92B4ED25E0FD50
:10071400C2B60000D2B60EBE08E7C2B50000D2B51C
:0107240022B2
:1007E300AB07AA06D2B6D2B5E4FDEBAE027807CECC
:1007F300C313CE13D8F94E24FF92B4EB25E0FBEAE2
:1008030033FAC2B60000D2B60DBD08DEC2B5000091
:03081300D2B52239
:100725008B6F8A708971E5B0C454F0FF64F0602F57
:10073500EF2490601B24C0601224D060092410703F
:1007450012756201800D756202800875620380036F
:10075500756204E562B50507AA70A9711204DC2269
:0308F100AF0C2227
:1003C700E4F5737FBC7E021208C830B203020483CF
:1003D7007BE87A0320B213D3EB9400EA9400400A37
:1003E7001208C4EB1B70ED1A80EA20B203020483E3
:1003F7007A017BF430B213D3EB9400EA9400400AFD
:100407001208C4EB1B70ED1A80EAE4FDE4F5727A7A
:10041700007B3C20B213D3EB9400EA9400400A120D
:1004270008C4EB1B70ED1A80EA7A017BF430B21F27
:10043700D3EB9400EA940040167F0A7E001208C8A6
:100447000573EB1B70011AE573D3941E40DF22740A
:100457000A2DF8C000E6C313D000F6E573C394086D
:100467004008740A2DF8E64480F6E4F5730572E552
:0D04770072C3940840990DED64047090224A
:0908E100D288D2A8D2AFD2B22213
:100636007601E50825E02450F8E6C39565FFF6E562
:100646000825E02452F8A607E50825E02451F8E637
:10065600C39563FFF6E50825E02453F8A6070508C9
:100666001206977C007D081204A68D6A1206977CF6
:10067600007D081204A6AF05E56A75F008A42410EB
:100686002FF8E664016006760275090122120666F5
:010696002241
:10086C00855064E5646402600C756501E4F563759C
:06087C005101755001223C
:10088200855064E5646401600C7565FFE4F5637589
:0608920051017550022225
:10089800855064E5646404600CE4F565756301756E
:0608A8005101755003220E
:1008AE00855064E5646403600CE4F5657563FF755B
:0608BE00510175500422F7
:0108F40022E1
:10000600E55170030201EFE4F569E50814C3648065
:10001600F8E56964809840030201ECE4F568AD6890
:10002600ED3395E0FCC3ED95087480F86C984003B9
:100036000201E7E56464036006E56464047061E553
:100046005064016006E55064027055E56825E024B9
:1000560053F8E675F008A42410F9E4FAFBC0038A05
:10006600838982E55375F008A42410F9D0E070075F
:10007600E965827002E583601AE564B4030BE568FE
:1000860025E02453F806020110E56825E02453F81C
:10009600168077E56825E02452F8E56526F6806A3D
:1000A600E56464016006E5646402705EE55064031D
:1000B6006006E55064047052E56825E02452F8E6CF
:1000C60075F008A42410F9E4FAFBC0038A83898238
:1000D600E55275F008A42410F9D0E07007E96582AE
:1000E6007002E5836019E564B4010AE56825E02439
:1000F60052F8068015E56825E02452F816800BE5CF
:100106006825E02453F8E56326F6E56825E02453E0
:10011600F8E6FF75F008120484AFF0EF7009E568A1
:1001260025E02453F8E4F6E565B4FF1CE56825E010
:100136002452F8E6C364809480502FE56825E024B5
:1001460052F8740826F68022E565B4011DE5682597
:10015600E02452F8E6FF75F008120484AFF0EF7061
:1001660009E56825E02452F8E4F6E5687064E508D8
:1001760025E02451F8E6FFE50825E02450F8E67569
:10018600F008A424102FF8E4F6E56825E02453F8D7
:10019600E6FFE56825E02452F8E675F008A4241089
:1001A6002FF8E664027010E55275F008A4241025B5
:1001B60053F8120636801BE56825E02453F8E6FF5F
:1001C600E56825E02452F8E675F008A424102FF817
:1001D60076011208167F887E131208C80568020089
:1001E600240569020010E4F551E50825E02451F8DC
:1001F600E6FFE50825E02450F8E675F008A424108B
:100206002FF8E4F6E50814F568C3E5686480948081
:100216004073E56825E02452F8E56526F6E568258D
:10022600E02453F8E56326F6E6FF75F00812048429
:10023600AFF0EF7009E56825E02453F8E4F6E565CC
:10024600B4FF1CE56825E02452F8E6C36480948078
:10025600502FE56825E02452F8740826F68022E53A
:1002660065B4011DE56825E02452F8E6FF75F0083F
:10027600120484AFF0EF7009E56825E02452F8E433
:10028600F615688084E55275F008A424102553F805
:10029600E664027005120636800DE55275F008A474
:1002A60024102553F876011208167F887E1302085B
:0102B600C87F
:1007A4001208E1E4FFE4FEEF75F008A424102EF82B
:1007B400E4F60EBE08F10FBF08EBE4FFEFC39508A3
:1007C400501CEF25E02453F8E6FEEF25E02452F810
:0F07D400E675F008A424102EF876010F80DE22BF
:10081600E4F56AE4F9E56A75F008A4241029F8E617
:10082600B401028004E6B40209AD017B01AF6A128D
:10083600076509B908DF056AE56AC3940840D4224A
:030003000202B73F
:1002B700C0E0C0D075D000C000C002C003C004C0F9
:1002C70005C006C0077567007FBC7E021208C830EC
:1002D700B2030203B47BE87A0320B213D3EB940092
:1002E700EA9400400A1208C4EB1B70ED1A80EA205A
:1002F700B20302038A7A017BF430B213D3EB940082
:10030700EA9400400A1208C4EB1B70ED1A80EAE475
:10031700FD7566007A007B3C20B213D3EB9400EAAC
:100327009400400A1208C4EB1B70ED1A80EA7A01A8
:100337007BF430B220D3EB9400EA940040177F0A95
:100347007E001208C80567EB1B70011AE567D39496
:100357001E40DF8058740A2DF8C000E6FFC313D093
:1003670000F6E567C394084008740A2DF8E6448050
:10037700F67567000566E566C3940840970DED645A
:1003870004708EE50DF4B50C24E50C24E860162402
:10039700C6601724F8600924527012120898800D5D
:1003A7001208AE800812086C8003120882D007D0AA
:1003B70006D005D004D003D002D000D0D0D0E03290
:0E08D3001207A41206661208F412000680F83E
:03000000020537BF
:0C053700787FE4F6D8FD75817302057E24
:100543000208D3E493A3F8E493A34003F68001F2F3
:1005530008DFF48029E493A3F85407240CC8C333B9
:10056300C4540F4420C8834004F456800146F6DF88
:10057300E4800B01020408102040809005C3E47E50
:10058300019360BCA3FF543F30E509541FFEE4937D
:10059300A360010ECF54C025E060A840B8E493A344
:1005A300FAE493A3F8E493A3C8C582C8CAC583CA6F
:1005B300F0A3C8C582C8CAC583CADFE9DEE780BE27
:0106350000C4
:10048400C2D530F707B2D563F0FF05F030E70CB200
:10049400D5F4048463F0FF05F080018430D502F4C0
:0204A400042230
:1004A600C2D5EC30E709B2D5E4C39DFDE49CFCEE71
:1004B60030E715B2D5E4C39FFFE49EFE1204E2C303
:1004C600E49DFDE49CFC80031204E230D507C3E4FE
:0604D6009FFFE49EFE22E0
:0604DC008A838982E473AB
:10069700AC6BAD6CAE6DAF6E7810EC4D4E4F700419
:1006A7007CA57DA5C3EC13FCED13FDEE13FEEF1344
:1006B700FF5010EC64CCFCED644CFDEE644EFEEF95
:1006C70064CEFFD8DF8C6B8D6C8E6D8F6EEE547F92
:0D06D700FE228E6B8F6C74A5F56DF56E2202
:1004E200BC000BBE0029EF8DF084FFADF022E4CCFE
:1004F200F875F008EF2FFFEE33FEEC33FCEE9DECC7
:10050200984005FCEE9DFE0FD5F0E9E4CEFD22ED0C
:10051200F8F5F0EE8420D21CFEADF075F008EF2F56
:10052200FFED33FD4007985006D5F0F222C398FD47
:050532000FD5F0EA22E4
:00000001FF
