:100623003F065B4F666D7D077F6F777C395E79711F
:010633007650
:10034A00204009000000000000000000000000003A
:10035A000000000000000000000000000000000093
:10036A000000000000000000000000000000000083
:10037A000000000000000000000000000000000073
:10038A00000000064D000200010000014903024B73
:10039A000000015503010802014A000156000154F8
:0103AA000151
:0B063400EF1FAC0670011E4C70F62298
:07064A007FA07E860206344A
:07065100D288D2A8D2AF222B
:07065800D28AD2AAD2AF2220
:1005A500C2B6C2B5E4FEEFC4131313540124FF927F
:1005B500B4EF25E0FFD2B60000C2B60EBE08E7D202
:0605C500B50000C2B522E2
:10047E00AE077F017C01E4FAEAC39E5007EF25E048
:10048E00FF0A80F4E4FAEAC39D5007EC25E0FC0A6B
:10049E0080F4EB6007C374FF9CFE8002AE808E80FA
:0F04AE001205A57F647E00120634E4FF0205A547
:1003FD00D2B6D2B5E4FEEFC4131313540124FF9209
:10040D00B4EF25E0FFC2B60000D2B60EBE08E7E499
:10041D00FEEDC4131313540124FF92B4ED25E0FD3A
:10042D00C2B60000D2B60EBE08E7C2B50000D2B506
:01043D00229C
:1004F400AB07AA06D2B6D2B5E4FDEBAE027807CEBE
:10050400C313CE13D8F94E24FF92B4EB25E0FBEAD3
:1005140033FAC2B60000D2B60DBD08DEC2B5000083
:03052400D2B5222B
:10043E008B578A588959E5B0C454F0FF64F0602F89
:10044E00EF2490601B24C0601224D0600924107029
:10045E0012755301800D7553028008755303800386
:10046E00755304E553B50507AA58A95912059F22DD
:1005CB00854955E5556402600C755601E4F5547583
:0605DB004A0175490122EE
:1005E100854955E5556401600C7556FFE4F5547570
:0605F1004A0175490222D7
:1005F700854955E5556404600CE4F5567554017555
:060607004A0175490322BF
:10060D00854955E5556403600CE4F5567554FF7541
:06061D004A0175490422A8
:100527007BFF7A0579CB7D0112043E7BFF7A057943
:10053700E17D0212043E7BFF7A0579F77D03120401
:0C0547003E7BFF7A06790D7D0402043E25
:10000300E54A70030201AAE4F558E4F557E555649F
:10001300036006E55564047061E54964016006E523
:100023004964027055E55725E0244EF8E675F0085B
:10003300A42409F9E4FAFBC0038A838982E54E7597
:10004300F008A42409F9D0E07007E965827002E59D
:1000530083601AE555B4030BE55725E0244EF806F3
:100063000200E7E55725E0244EF8168077E557258B
:10007300E0244DF8E55626F6806AE55564016006EE
:10008300E5556402705EE54964036006E54964046E
:100093007052E55725E0244DF8E675F008A42409CD
:1000A300F9E4FAFBC0038A838982E54D75F008A45D
:1000B3002409F9D0E07007E965827002E5836019CD
:1000C300E555B4010AE55725E0244DF8068015E50A
:1000D3005725E0244DF816800BE55725E0244EF80C
:1000E300E55426F6E55725E0244EF8E6FF75F008BB
:1000F30012057DAFF0EF7009E55725E0244EF8E4D3
:10010300F6E556B4FF1CE55725E0244DF8E6C36435
:10011300809480502FE55725E0244DF8740826F687
:100123008022E556B4011DE55725E0244DF8E6FF8E
:1001330075F00812057DAFF0EF7009E55725E0244F
:100143004DF8E4F6E5577036E50825E0244EF8E669
:10015300FFE50825E0244DF8E675F008A424092FEF
:10016300F8E4F6E55725E0244EF8E6FFE55725E0E9
:10017300244DF8E675F008A424092FF8760112053A
:10018300537F887E131206340557C3E55764809462
:100193008350030200100558C3E5586480948250CD
:1001A3000302000DE4F54AE50825E0244EF8E6FFD6
:1001B300E50825E0244DF8E675F008A424092FF896
:1001C300E4F6755702E55725E0244DF8E55626F683
:1001D300E55725E0244EF8E55426F6E6FF75F008CA
:1001E30012057DAFF0EF7009E55725E0244EF8E4E2
:1001F300F6E556B4FF1CE55725E0244DF8E6C36445
:10020300809480502FE55725E0244DF8740826F696
:100213008022E556B4011DE55725E0244DF8E6FF9D
:1002230075F00812057DAFF0EF7009E55725E0245E
:100233004DF8E4F61557C3E557648094805086E57E
:100243004D75F008A42409254EF876011205537F55
:06025300887E1302063450
:1004BD00E4FFE4FEEF75F008A424092EF8E4F60E2F
:1004CD00BE08F10FBF08EBE4FFEF25E0244EF8E680
:1004DD00FEEF25E0244DF8E675F008A424092EF86A
:0704ED0076010FBF03E322BB
:10055300E4F559E4F9E55975F008A4240929F8E606
:10056300B40109AD017B01AF5912047E09B908E555
:0A0573000559E559C3940840DA2247
:1003AC00EFB40800504A9003B9F82828730203D11F
:1003BC000203D50203DC0203E00203E70203EB02B3
:1003CC0003F20203F6D2A28002C2A2D2A3D2A422CA
:1003DC00D2A28002C2A2C2A3D2A422D2A28002C202
:1003EC00A2D2A3C2A422D2A28002C2A2C2A3C2A43D
:0103FC0022DE
:1002E500EFB40800504D9002F2F828287302030A73
:1002F50002030E02031602031A0203220203260258
:10030500032E020332D2A28002C2A2D2A3D2A480BB
:1003150022D2A28002C2A2C2A3D2A48016D2A280F7
:1003250002C2A2D2A3C2A4800AD2A28002C2A2C2E1
:10033500A3C2A4ED90062393F5807F327E001206BA
:0503450034E4F5802204
:0B063F001204BD12052712000380F812
:03000000020259A0
:0C025900787FE4F6D8FD7581590202A000
:1002650002063FE493A3F8E493A34003F68001F26A
:1002750008DFF48029E493A3F85407240CC8C3339A
:10028500C4540F4420C8834004F456800146F6DF69
:10029500E4800B010204081020408090034AE47EAC
:1002A500019360BCA3FF543F30E509541FFEE4935E
:1002B500A360010ECF54C025E060A840B8E493A325
:1002C500FAE493A3F8E493A3C8C582C8CAC583CA50
:1002D500F0A3C8C582C8CAC583CADFE9DEE780BE08
:0103AB000051
:10057D00C2D530F707B2D563F0FF05F030E70CB206
:10058D00D5F4048463F0FF05F080018430D502F4C6
:02059D00042236
:06059F008A838982E473E7
:00000001FF
