:1003FE003F065B4F666D7D077F6F777C395E797147
:01040E007677
:0B042B00EF1FAC0670011E4C70F622A3
:070441007FA07E8602042B60
:1003D800C2B6C2B5E4FEEFC4131313540124FF924E
:1003E800B4EF25E0FFD2B60000C2B60EBE08E7D2D1
:0603F800B50000C2B522B1
:1002FF00AE077F017C01E4FAEAC39E5007EF25E0C9
:10030F00FF0A80F4E4FAEAC39D5007EC25E0FC0AEB
:10031F0080F4EB6007C374FF9CFE8002AE808E807A
:0F032F001203D87F647E0012042BE4FF0203D870
:1002BE00D2B6D2B5E4FEEFC4131313540124FF9249
:1002CE00B4EF25E0FFC2B60000D2B60EBE08E7E4DA
:1002DE00FEEDC4131313540124FF92B4ED25E0FD7B
:1002EE00C2B60000D2B60EBE08E7C2B50000D2B547
:0102FE0022DD
:10037A00AB07AA06D2B6D2B5E4FDEBAE027807CE39
:10038A00C313CE13D8F94E24FF92B4EB25E0FBEA4F
:10039A0033FAC2B60000D2B60DBD08DEC2B50000FF
:0303AA00D2B522A7
:1000C4007F057E0012016CAA06A9077508018A093A
:1000D400890A7F057E0012016CAA06A9077B018BA1
:1000E4000B8A0C890DE412001CAB0BAA0CA90D9011
:1000F400000112002E7B007A007900C003C002C008
:1001040001AB0BAA0CA90D900002120050750E0150
:100114007F057E0012016CAA06A9077508018A09E9
:10012400890AAB0BAA0CA90DC003C002C001AB081D
:10013400AA09A90A900002120050AB08AA09A90A48
:10014400E50E12001CAB08AA09A90A900001E412EA
:10015400002E8B0B8A0C890D050EE50EC39403400B
:08016400AFAB0BAA0CA90D22A0
:10040F00E4F97B01AD0FAF101202FF09B903F3221C
:10026D00EFB40800504A90027AF8282873020292DF
:10027D0002029602029D0202A10202A80202AC0233
:10028D0002B30202B7D2A28002C2A2D2A3D2A4228A
:10029D00D2A28002C2A2C2A3D2A422D2A28002C242
:1002AD00A2D2A3C2A422D2A28002C2A2C2A3C2A47D
:0102BD00221E
:10020800EFB40800504D900215F828287302022D0B
:1002180002023102023902023D020245020249028B
:100228000251020255D2A28002C2A2D2A3D2A48055
:1002380022D2A28002C2A2C2A3D2A48016D2A280D5
:1002480002C2A2D2A3C2A4800AD2A28002C2A2C2BF
:10025800A3C2A4ED9003FE93F5807F327E001204C2
:050268002BE4F58022EB
:1003AD007F017E0012016CAA06A9077B017403125E
:1003BD00001C120003FDE4FF1202087FE87E031209
:0B03CD00042B7D037F0112020880E773
:0300000002041FD8
:0C041F00787FE4F6D8FD7581170203AD6C
:10000300BB010689828A83E0225002E722BBFE02FB
:09001300E32289828A83E493222E
:10001C00BB010689828A83F0225002F722BBFE01C3
:02002C00F322BD
:10002E00F8BB010DE58229F582E5833AF583E8F008
:10003E00225006E92582C8F622BBFE05E92582C8B4
:02004E00F2229C
:10005000BB0120E58229F582E5833AF583D0F0D013
:10006000E0F8D0E0F9D0E0FAD0E0FBE8C0E0C0F082
:100070000200B25018E92582F8D083D082D0E0F98E
:10008000D0E0FAD0E0FBC082C0830200A9BBFE181A
:10009000E92582F8D083D082D0E0F9D0E0FAD0E030
:0900A000FBC082C0830200BB22F8
:10016C008E148F157E007F008F828E83E0FCA3E0BF
:10017C00FD4C7003FEFF228D828C83A3A3E0FAA3B7
:10018C00E0FBC39515EA95145008CEECCECFEDCF1D
:10019C0080D6C3EB9515F517EA9514F516C3E5173C
:1001AC009410E516940050198D828C83E0FBA3E02B
:1001BC008F828E83CBF0A3EBF0ED2404FFE43CFEA6
:1001CC002274FC2517F51774FF3516F5168D828CE5
:1001DC0083A3A3F0A3E517F0ED2404FFE43CFEEFAA
:1001EC002517FFEE3516FE8F82F583A3A3E514F0D9
:0C01FC00A3E515F0EF2404FFE43EFE2212
:0900A900EBF608EAF608E9F6227C
:0900B200EBF0A3EAF0A3E9F0224F
:0900BB00EBF208EAF208E9F22276
:0B043600480000000000000000000073
:10033E00EF4E7008FE7F01ED1D70011C900000EE67
:10034E00F0A3EFF0A3ECF0A3EDF0900000E0FEA31D
:10035E00E0FFF5828E83E4F0A3F0ED24FCFDEC3497
:0C036E00FF8F828E83A3A3F0A3EDF0228A
:00000001FF
