:10042A003F065B4F666D7D077F6F777C395E79711A
:01043A00764B
:10020900204008000000000000000000000000007D
:1002190000000000000000000000000000000000D5
:1002290000000000000000000000000000000000C5
:1002390000000000000000000000000000000000B5
:10024900000000064B0000000100020148030249BA
:020259000000A3
:0B045900EF1FAC0670011E4C70F62275
:070464007FA07E860204590F
:07046B00D288D2A8D2AF2213
:07047200D28AD2AAD2AF2208
:10040400C2B6C2B5E4FEEFC4131313540124FF9221
:10041400B4EF25E0FFD2B60000C2B60EBE08E7D2A4
:06042400B50000C2B52284
:10032E00AE077F017C01E4FAEAC39E5007EF25E099
:10033E00FF0A80F4E4FAEAC39D5007EC25E0FC0ABC
:10034E0080F4EB6007C374FF9CFE8002AE808E804B
:0F035E001204047F647E00120459E4FF020404B9
:1002AD00D2B6D2B5E4FEEFC4131313540124FF925A
:1002BD00B4EF25E0FFC2B60000D2B60EBE08E7E4EB
:1002CD00FEEDC4131313540124FF92B4ED25E0FD8C
:1002DD00C2B60000D2B60EBE08E7C2B50000D2B558
:0102ED0022EE
:1003A700AB07AA06D2B6D2B5E4FDEBAE027807CE0C
:1003B700C313CE13D8F94E24FF92B4EB25E0FBEA22
:1003C70033FAC2B60000D2B60DBD08DEC2B50000D2
:0303D700D2B5227A
:1002EE008B528A538954E5B0C454F0FF64F0602FEA
:1002FE00EF2490601B24C0601224D060092410707B
:10030E0012755101800D75510280087551038003DD
:10031E00755104E551B50507AA53A9541204792263
:04047F007548012299
:0304830002043B35
:10043B00E4F549F54A7BFF7A04797F7D010202EEF0
:10000300E54824FE70030200D9146048147003020B
:10001300009824036003020111E54B75F008A42442
:1000230008254CF8E4F6FDED25E0244BF806ED2514
:10003300E0244CF8E654077001F6E6FFED25E024D2
:100043004BF8E675F008A424082FF876010DBD03DC
:10005300D6020111E54B75F008A42408254CF8E4F9
:10006300F6FDED25E0244CF806E654077008ED256F
:10007300E0244CF8E4F6ED25E0244CF8E6FFED250A
:10008300E0244BF8E675F008A424082FF876010D58
:10009300BD03CF8079E54B75F008A42408254CF8FF
:1000A300E4F6FDED25E0244CF816E654077008ED60
:1000B30025E0244CF8E4F6ED25E0244CF8E6FFEDCA
:1000C30025E0244BF8E675F008A424082FF8760100
:1000D3000DBD03CF8038E54B75F008A42408254CEB
:1000E300F8E4F6FDED25E0244BF816ED25E0244C6D
:1000F300F8E654077001F6E6FFED25E0244BF8E639
:1001030075F008A424082FF876010DBD03D67F8867
:050113007E13020459F7
:10036D00E4FFE4FEEF75F008A424082EF8E4F60E81
:10037D00BE08F10FBF08EB12046BE4FFEF25E0247C
:10038D004CF8E6FEEF25E0244BF8E675F008A424C2
:0A039D00082EF876010FBF03E322DB
:1003DA00E4F552E4F9E55275F008A4240829F8E690
:1003EA00B40109AD017B01AF5212032E09B908E528
:0A03FA000552E552C3940840DA22D0
:10025C00EFB40800504A900269F828287302028112
:10026C0002028502028C02029002029702029B0299
:10027C0002A20202A6D2A28002C2A2D2A3D2A422BD
:10028C00D2A28002C2A2C2A3D2A422D2A28002C253
:10029C00A2D2A3C2A422D2A28002C2A2C2A3C2A48E
:0102AC00222F
:1001A400EFB40800504D9001B1F82828730201C93A
:1001B4000201CD0201D50201D90201E10201E502E9
:1001C40001ED0201F1D2A28002C2A2D2A3D2A48084
:1001D40022D2A28002C2A2C2A3D2A48016D2A2803A
:1001E40002C2A2D2A3C2A4800AD2A28002C2A2C224
:1001F400A3C2A4ED90042A93F5807F327E001204FA
:0502040059E4F5802221
:0E044B0012036D1203DA12000312043B80F557
:03000000020118E2
:0C011800787FE4F6D8FD75815402015F89
:1001240002044BE493A3F8E493A34003F68001F2A2
:1001340008DFF48029E493A3F85407240CC8C333DC
:10014400C4540F4420C8834004F456800146F6DFAB
:10015400E4800B0102040810204080900209E47E30
:10016400019360BCA3FF543F30E509541FFEE493A0
:10017400A360010ECF54C025E060A840B8E493A367
:10018400FAE493A3F8E493A3C8C582C8CAC583CA92
:10019400F0A3C8C582C8CAC583CADFE9DEE780BE4A
:01025B0000A2
:060479008A838982E4730E
:00000001FF
