:1007CB003F065B4F666D7D077F6F777C395E797176
:0107DB0076A7
:1003F30001080320400A0000000000000000000084
:1004030000000000000000000000000000000000E9
:1004130000000000000000000000000000000000D9
:1004230000000000000000000000000000000000C9
:10043300000000000000104C00020001000000005A
:100443000000000000000000014A03015E03014BAD
:0A04530000015F00015D01010900D6
:0B07EA00EF1FAC0670011E4C70F622E1
:0707F5007FA07E860207EAE7
:10074D00C2B6C2B5E4FEEFC4131313540124FF92D5
:10075D00B4EF25E0FFD2B60000C2B60EBE08E7D258
:06076D00B50000C2B52238
:10064300AE077F017C01E4FAEAC39E5007EF25E081
:10065300FF0A80F4E4FAEAC39D5007EC25E0FC0AA4
:1006630080F4EB6007C374FF9CFE8002AE808E8033
:0F06730012074D7F647E001207EAE4FF02074D75
:1005C200D2B6D2B5E4FEEFC4131313540124FF9242
:1005D200B4EF25E0FFC2B60000D2B60EBE08E7E4D3
:1005E200FEEDC4131313540124FF92B4ED25E0FD74
:1005F200C2B60000D2B60EBE08E7C2B50000D2B540
:0106020022D5
:1006BE00AB07AA06D2B6D2B5E4FDEBAE027807CEF2
:1006CE00C313CE13D8F94E24FF92B4EB25E0FBEA08
:1006DE0033FAC2B60000D2B60DBD08DEC2B50000B8
:0306EE00D2B52260
:100603008B648A658966E5B0C454F0FF64F0602F9B
:10061300EF2490601B24C0601224D0600924107062
:1006230012755C01800D755C028008755C038003A4
:10063300755C04E55CB50507AA65A96612030C227F
:1004C3007601E50825E0244AF8E6C3955FFFF6E5E3
:1004D3000825E0244CF8A607E50825E0244BF8E6B8
:1004E300C3955DFFF6E50825E0244DF8A60705084A
:1004F3001205757C007D081202D68D661205757C87
:10050300007D081202D6AF05E56675F008A4240A3B
:100513002FF8E6640160067602750901221204F3DE
:0105230022B5
:10077300854A5EE55E6402600C755F01E4F55D75B4
:060783004B01754A012242
:10078900854A5EE55E6401600C755FFFE4F55D75A1
:060799004B01754A02222B
:10079F00854A5EE55E6404600CE4F55F755D017586
:0607AF004B01754A032214
:1007B500854A5EE55E6403600CE4F55F755DFF7573
:0607C5004B01754A0422FD
:100721007BFF7A0779737D011206037BFF7A0779D4
:10073100897D021206037BFF7A07799F7D031206EA
:0C074100037BFF7A0779B57D04020603F4
:10000300E54B70030201ECE4F565E50814C3648075
:10001300F8E56564809840030201E9E4F564AD64A2
:10002300ED3395E0FCC3ED95087480F86C984003BC
:100033000201E4E55E64036006E55E64047061E565
:100043004A64016006E54A64027055E56425E024CC
:100053004DF8E675F008A4240AF9E4FAFBC0038A14
:10006300838982E54D75F008A4240AF9D0E070076E
:10007300E965827002E583601AE55EB4030BE5640B
:1000830025E0244DF80602010DE56425E0244DF832
:10009300168077E56425E0244CF8E55F26F6806A50
:1000A300E55E64016006E55E6402705EE54A640332
:1000B3006006E54A64047052E56425E0244CF8E6E2
:1000C30075F008A4240AF9E4FAFBC0038A83898241
:1000D300E54C75F008A4240AF9D0E07007E96582BD
:1000E3007002E5836019E55EB4010AE56425E02446
:1000F3004CF8068015E56425E0244CF816800BE5E2
:100103006425E0244DF8E55D26F6E56425E0244DFD
:10011300F8E6FF75F0081202B4AFF0EF7009E5647A
:1001230025E0244DF8E4F6E55FB4FF1CE56425E023
:10013300244CF8E6C364809480502FE56425E024C2
:100143004CF8740826F68022E55FB4011DE56425AA
:10015300E0244CF8E6FF75F0081202B4AFF0EF703C
:1001630009E56425E0244CF8E4F6E5647064E508E9
:1001730025E0244BF8E6FFE50825E0244AF8E67578
:10018300F008A4240A2FF8E4F6E56425E0244DF8EA
:10019300E6FFE56425E0244CF8E675F008A4240A9C
:1001A3002FF8E664027010E54C75F008A4240A25C4
:1001B3004DF81204C3801BE56425E0244DF8E6FFE7
:1001C300E56425E0244CF8E675F008A4240A2FF82A
:1001D30076011206F17F887E131207EA0564020096
:1001E30021056502000DE4F54BE50825E0244BF8F5
:1001F300E6FFE50825E0244AF8E675F008A4240A9A
:100203002FF8E4F6E50814F564C3E564648094808C
:100213004073E56425E0244CF8E55F26F6E56425A4
:10022300E0244DF8E55D26F6E6FF75F0081202B40A
:10023300AFF0EF7009E56425E0244DF8E4F6E55FDF
:10024300B4FF1CE56425E0244CF8E6C36480948085
:10025300502FE56425E0244CF8740826F68022E547
:100263005FB4011DE56425E0244CF8E6FF75F00852
:100273001202B4AFF0EF7009E56425E0244CF8E412
:10028300F615648084E54C75F008A4240A254DF81E
:10029300E6640270051204C3800DE54C75F008A4F2
:1002A300240A254DF876011206F17F887E13020792
:0102B300EA60
:10068200E4FFE4FEEF75F008A4240A2EF8E4F60E67
:10069200BE08F10FBF08EBE4FFEFC39508501CEF53
:1006A20025E0244DF8E6FEEF25E0244CF8E675F04F
:0C06B20008A4240A2EF876010F80DE2236
:1006F100E4F566E4F9E56675F008A4240A29F8E64C
:10070100B401028004E6B40209AD017B01AF6612B7
:10071100064309B908DF0566E566C3940840D4229B
:10052400EFB40800504A900531F8282873020549B1
:1005340002054D02055402055802055F02056302D7
:10054400056A02056ED2A28002C2A2D2A3D2A4225C
:10055400D2A28002C2A2C2A3D2A422D2A28002C288
:10056400A2D2A3C2A422D2A28002C2A2C2A3C2A4C3
:010574002264
:10045E00EFB40800504D90046BF828287302048303
:10046E0002048702048F02049302049B02049F027B
:10047E0004A70204ABD2A28002C2A2D2A3D2A4804D
:10048E0022D2A28002C2A2C2A3D2A48016D2A2807D
:10049E0002C2A2D2A3C2A4800AD2A28002C2A2C267
:1004AE00A3C2A4ED9007CB93F5807F327E00120796
:0504BE00EAE4F58022D4
:0707FC00D288D2A8D2AF227F
:07080300D28AD2AAD2AF2273
:0E07DC001206821204F312072112000380F8A5
:0300000002036791
:0C036700787FE4F6D8FD7581660203AED5
:100373000207DCE493A3F8E493A34003F68001F2BD
:1003830008DFF48029E493A3F85407240CC8C3338B
:10039300C4540F4420C8834004F456800146F6DF5A
:1003A300E4800B01020408102040809003F3E47EF4
:1003B300019360BCA3FF543F30E509541FFEE4934F
:1003C300A360010ECF54C025E060A840B8E493A316
:1003D300FAE493A3F8E493A3C8C582C8CAC583CA41
:1003E300F0A3C8C582C8CAC583CADFE9DEE780BEF9
:01045D00009E
:1002B400C2D530F707B2D563F0FF05F030E70CB2D2
:1002C400D5F4048463F0FF05F080018430D502F492
:0202D400042202
:1002D600C2D5EC30E709B2D5E4C39DFDE49CFCEE43
:1002E60030E715B2D5E4C39FFFE49EFE120312C3A6
:1002F600E49DFDE49CFC800312031230D507C3E4A1
:060306009FFFE49EFE22B1
:06030C008A838982E4737C
:10057500AC60AD61AE62AF637810EC4D4E4F700468
:100585007CA57DA5C3EC13FCED13FDEE13FEEF1367
:10059500FF5010EC64CCFCED644CFDEE644EFEEFB8
:1005A50064CEFFD8DF8C608D618E628F63EE547FE1
:0D05B500FE228E608F6174A5F562F5632251
:10031200BC000BBE0029EF8DF084FFADF022E4CCCF
:10032200F875F008EF2FFFEE33FEEC33FCEE9DEC98
:10033200984005FCEE9DFE0FD5F0E9E4CEFD22EDDE
:10034200F8F5F0EE8420D21CFEADF075F008EF2F28
:10035200FFED33FD4007985006D5F0F222C398FD19
:050362000FD5F0EA22B6
:00000001FF
