:1005C300060C000000000000010803204012000098
:1005D3000000000000000000000000000000000018
:1005E3000000000000000000000000000000000008
:1005F30000000000000000000000000000000000F8
:100603000000000000000000000000000000105483
:1006130000020001000000000000000000000000D4
:1006230001520301660301530001670001650101E3
:060633000B0002090000AB
:04090B007F017E00EA
:0B090F00EF1FAC0670011E4C70F622BA
:070945007FA07E8602090F6E
:10087400C2B6C2B5E4FEEFC4131313540124FF92AD
:10088400B4EF25E0FFD2B60000C2B60EBE08E7D230
:06089400B50000C2B52210
:10076900AE077F017C01E4FAEAC39E5007EF25E05A
:10077900FF0A80F4E4FAEAC39D5007EC25E0FC0A7D
:1007890080F4EB6007C374FF9CFE8002AE808E800C
:0F0799001208747F647E0012090FE4FF020874D7
:1006E800D2B6D2B5E4FEEFC4131313540124FF921B
:1006F800B4EF25E0FFC2B60000D2B60EBE08E7E4AC
:10070800FEEDC4131313540124FF92B4ED25E0FD4C
:10071800C2B60000D2B60EBE08E7C2B50000D2B518
:0107280022AE
:1007E700AB07AA06D2B6D2B5E4FDEBAE027807CEC8
:1007F700C313CE13D8F94E24FF92B4EB25E0FBEADE
:1008070033FAC2B60000D2B60DBD08DEC2B500008D
:03081700D2B52235
:100729008B718A728973E5B0C454F0FF64F0602F4D
:10073900EF2490601B24C0601224D060092410703B
:1007490012756401800D7564028008756403800365
:10075900756404E564B50507AA72A9731204DC225D
:03094C00AF0E22C9
:1003C700E4F5757FBC7E0212090F30B20302048385
:1003D7007BE87A0320B213D3EB9400EA9400400A37
:1003E70012090BEB1B70ED1A80EA20B2030204839B
:1003F7007A017BF430B213D3EB9400EA9400400AFD
:1004070012090BEB1B70ED1A80EAE4FDE4F5747A30
:10041700007B3C20B213D3EB9400EA9400400A120D
:10042700090BEB1B70ED1A80EA7A017BF430B21FDF
:10043700D3EB9400EA940040167F0A7E0012090F5E
:100447000575EB1B70011AE575D3941E40DF227406
:100457000C2DF8C000E6C313D000F6E575C3940869
:100467004008740C2DF8E64480F6E4F5750574E54C
:0D04770074C3940840990DED640470902248
:09093C00D288D2A8D2AFD2B222B7
:10084A00C2A58F807F017E0012085BD2A77F057E3A
:01085A00009D
:10085B00D3EF9400EE9400400F7DC77C01DCFEDDEE
:09086B00FAEF1F70EB1E80E82279
:0A092800C2A7C2A612084AC2A72205
:0A093200C2A7D2A612084AC2A722EB
:10089A007F381209287F0C1209287F061209287F3F
:0908AA00011209287F80020928CF
:10063A007601E50825E02452F8E6C39567FFF6E55A
:10064A000825E02454F8A607E50825E02453F8E62F
:10065A00C39565FFF6E50825E02455F8A6070508C1
:10066A0012069B7C007D081204A68D6C12069B7CE8
:10067A00007D081204A6AF05E56C75F008A42412E3
:10068A002FF8E6640160067602750B012212066AEB
:01069A00223D
:1008B300855266E5666402600C756701E4F565754B
:0608C300530175520122F1
:1008C900855266E5666401600C7567FFE4F5657538
:0608D900530175520222DA
:1008DF00855266E5666404600CE4F567756501751D
:0608EF00530175520322C3
:1008F500855266E5666403600CE4F5677565FF750A
:06090500530175520422AB
:01094F002285
:10000600E55370030201EFE4F56BE50814C3648061
:10001600F8E56B64809840030201ECE4F56AAD6A8A
:10002600ED3395E0FCC3ED95087480F86C984003B9
:100036000201E7E56664036006E56664047061E54F
:100046005264016006E55264027055E56A25E024B3
:1000560055F8E675F008A42412F9E4FAFBC0038A01
:10006600838982E55575F008A42412F9D0E070075B
:10007600E965827002E583601AE566B4030BE56AFA
:1000860025E02455F806020110E56A25E02455F816
:10009600168077E56A25E02454F8E56726F6806A37
:1000A600E56664016006E5666402705EE552640317
:1000B6006006E55264047052E56A25E02454F8E6C9
:1000C60075F008A42412F9E4FAFBC0038A83898236
:1000D600E55475F008A42412F9D0E07007E96582AA
:1000E6007002E5836019E566B4010AE56A25E02435
:1000F60054F8068015E56A25E02454F816800BE5C9
:100106006A25E02455F8E56526F6E56A25E02455D6
:10011600F8E6FF75F008120484AFF0EF7009E56A9F
:1001260025E02455F8E4F6E567B4FF1CE56A25E00A
:100136002454F8E6C364809480502FE56A25E024B1
:1001460054F8740826F68022E567B4011DE56A2591
:10015600E02454F8E6FF75F008120484AFF0EF705F
:1001660009E56A25E02454F8E4F6E56A7064E508D2
:1001760025E02453F8E6FFE50825E02452F8E67565
:10018600F008A424122FF8E4F6E56A25E02455F8D1
:10019600E6FFE56A25E02454F8E675F008A4241283
:1001A6002FF8E664027010E55475F008A4241225B1
:1001B60055F812063A801BE56A25E02455F8E6FF55
:1001C600E56A25E02454F8E675F008A424122FF811
:1001D600760112081A7F887E1312090F056A02003B
:1001E60024056B020010E4F553E50825E02453F8D6
:1001F600E6FFE50825E02452F8E675F008A4241287
:100206002FF8E4F6E50814F56AC3E56A648094807D
:100216004073E56A25E02454F8E56726F6E56A2585
:10022600E02455F8E56526F6E6FF75F00812048425
:10023600AFF0EF7009E56A25E02455F8E4F6E567C6
:10024600B4FF1CE56A25E02454F8E6C36480948074
:10025600502FE56A25E02454F8740826F68022E536
:1002660067B4011DE56A25E02454F8E6FF75F00839
:10027600120484AFF0EF7009E56A25E02454F8E42F
:10028600F6156A8084E55475F008A424122555F8FD
:10029600E66402700512063A800DE55475F008A46E
:1002A60024122555F8760112081A7F887E13020952
:0102B6000F38
:1007A80012093CE4FFE4FEEF75F008A424122EF8C9
:1007B800E4F60EBE08F10FBF08EBE4FFEFC395089F
:1007C800501CEF25E02455F8E6FEEF25E02454F808
:0F07D800E675F008A424122EF876010F80DE22B9
:10081A00E4F56CE4F9E56C75F008A4241229F8E60D
:10082A00B401028004E6B40209AD017B01AF6C1287
:10083A00076909B908DF056CE56CC3940840D4223E
:030003000202B73F
:1002B700C0E0C0D075D000C000C002C003C004C0F9
:1002C70005C006C0077569007FBC7E0212090F30A2
:1002D700B2030203B47BE87A0320B213D3EB940092
:1002E700EA9400400A12090BEB1B70ED1A80EA2012
:1002F700B20302038A7A017BF430B213D3EB940082
:10030700EA9400400A12090BEB1B70ED1A80EAE42D
:10031700FD7568007A007B3C20B213D3EB9400EAAA
:100327009400400A12090BEB1B70ED1A80EA7A0160
:100337007BF430B220D3EB9400EA940040177F0A95
:100347007E0012090F0569EB1B70011AE569D3944A
:100357001E40DF8058740C2DF8C000E6FFC313D091
:1003670000F6E569C394084008740C2DF8E644804C
:10037700F67569000568E568C3940840970DED6454
:1003870004708EE50FF4B50E24E50E24E8601624FC
:10039700C6601724F86009245270121208DF800D16
:1003A7001208F580081208B380031208C9D007D0D5
:1003B70006D005D004D003D002D000D0D0D0E03290
:0E091A001207A812066A12094F12000680F892
:03000000020537BF
:0C053700787FE4F6D8FD75817502057E22
:1005430002091AE493A3F8E493A34003F68001F2AB
:1005530008DFF48029E493A3F85407240CC8C333B9
:10056300C4540F4420C8834004F456800146F6DF88
:10057300E4800B01020408102040809005C3E47E50
:10058300019360BCA3FF543F30E509541FFEE4937D
:10059300A360010ECF54C025E060A840B8E493A344
:1005A300FAE493A3F8E493A3C8C582C8CAC583CA6F
:1005B300F0A3C8C582C8CAC583CADFE9DEE780BE27
:0106390000C0
:10048400C2D530F707B2D563F0FF05F030E70CB200
:10049400D5F4048463F0FF05F080018430D502F4C0
:0204A400042230
:1004A600C2D5EC30E709B2D5E4C39DFDE49CFCEE71
:1004B60030E715B2D5E4C39FFFE49EFE1204E2C303
:1004C600E49DFDE49CFC80031204E230D507C3E4FE
:0604D6009FFFE49EFE22E0
:0604DC008A838982E473AB
:10069B00AC6DAD6EAE6FAF707810EC4D4E4F70040D
:1006AB007CA57DA5C3EC13FCED13FDEE13FEEF1340
:1006BB00FF5010EC64CCFCED644CFDEE644EFEEF91
:1006CB0064CEFFD8DF8C6D8D6E8E6F8F70EE547F86
:0D06DB00FE228E6D8F6E74A5F56FF57022F6
:1004E200BC000BBE0029EF8DF084FFADF022E4CCFE
:1004F200F875F008EF2FFFEE33FEEC33FCEE9DECC7
:10050200984005FCEE9DFE0FD5F0E9E4CEFD22ED0C
:10051200F8F5F0EE8420D21CFEADF075F008EF2F56
:10052200FFED33FD4007985006D5F0F222C398FD47
:050532000FD5F0EA22E4
:00000001FF
