:0B017400EF1FAC0670011E4C70F6225D
:07017F007FA07E86020174DF
:1000E9008E088F09AF057D0112007EE4FBAFA07871
:1000F90001EF08800123D8FDF5A0AE08AF097C0007
:0D0109007D641201561201740BBB07E12248
:0401860075A0FF223F
:04018A00E4F5A022D6
:10007E00EFC394004031EF9408502C750B01E4F55A
:10008E000AE50AC39F500CE50B25E025E0F50B05AC
:10009E000A80EEED7005E50B52A022EF700453A01E
:0800AE00FE22E50B1452A02212
:10011600C2B6C2B5E4FEEFC4131313540124FF9212
:10012600B4EF25E0FFD2B60000C2B60EBE08E7D295
:06013600B50000C2B52275
:10004400AE077F017C01E4FAEAC39E5007EF25E086
:10005400FF0A80F4E4FAEAC39D5007EC25E0FC0AA9
:1000640080F4EB6007C374FF9CFE8002AE808E8038
:0A0074001201167F647E0002017481
:10000300D2B6D2B5E4FEEFC4131313540124FF9206
:10001300B4EF25E0FFC2B60000D2B60EBE08E7E497
:10002300FEEDC4131313540124FF92B4ED25E0FD38
:10003300C2B60000D2B60EBE08E7C2B50000D2B504
:01004300229A
:1000B600AB07AA06D2B6D2B5E4FDEBAE027807CE00
:1000C600C313CE13D8F94E24FF92B4EB25E0FBEA16
:1000D60033FAC2B60000D2B60DBD08DEC2B50000C6
:0300E600D2B5226E
:10013C00E4F9AF01AD017B0112004412017FAF0164
:0A014C001B12004409B908EA80E61E
:0300000002016892
:0C016800787FE4F6D8FD75810B02013CA5
:10015600EF8DF0A4A8F0CF8CF0A428CE8DF0A42EBD
:02016600FE2277
:00000001FF
