:1001F6003F065B4F666D7D077F6F777C395E797151
:010206007681
:0B021300EF1FAC0670011E4C70F622BD
:07021E007FA07E860202139F
:040225001201DD22C3
:1001C100C2B6E4FEEFC4131313540124FF92B4EF3B
:0C01D10025E0FFC2B6D2B60EBE08E9223F
:10019D00E4FFFEC2B6FDFCEF25E0FFEE33FED2B666
:1001AD00C2B6A2B7E43342070DBD00010CED640CDD
:0401BD004C70E4227C
:1001DD00C2B6C2B51201C17F06DFFED2B60000C2A3
:0901ED00B6000012019DD2B522FA
:10014C00EFB40800504A900159F828287302017145
:10015C0002017502017C02018002018702018B02FF
:10016C000192020196D2A28002C2A2D2A3D2A422F0
:10017C00D2A28002C2A2C2A3D2A422D2A28002C264
:10018C00A2D2A3C2A422D2A28002C2A2C2A3C2A49F
:01019C002240
:10009200EFB40800504D90009FF82828730200B773
:1000A2000200BB0200C30200C70200CF0200D3025B
:1000B20000DB0200DFD2A28002C2A2D2A3D2A480BD
:1000C20022D2A28002C2A2C2A3D2A48016D2A2804D
:1000D20002C2A2D2A3C2A4800AD2A28002C2A2C237
:1000E200A3C2A4ED9001F693F5807F327E00120246
:0500F20013E4F580227B
:100003007F94120225AB07AA067C037DE81200F752
:10001300AD07E4FF1200927C037DE8AF03AE02124A
:1000230000F77E007F64CFCDCFCECCCE1200F7ADEC
:10003300077F011200927C037DE8AF03AE0212003A
:10004300F77E007F64CFCDCFCECCCE1200F77E00FB
:100053007F0ACFCDCFCECCCE1200F7AD077F0212F1
:1000630000927C037DE8AF03AE021200F77E007FAF
:1000730064CFCDCFCECCCE1200F77E007F0ACFCD9A
:0F008300CFCECCCE1200F77F0312009202000303
:03000000020207F2
:0C020700787FE4F6D8FD75810802000342
:1000F700BC000BBE0029EF8DF084FFADF022E4CCED
:10010700F875F008EF2FFFEE33FEEC33FCEE9DECB5
:10011700984005FCEE9DFE0FD5F0E9E4CEFD22EDFB
:10012700F8F5F0EE8420D21CFEADF075F008EF2F45
:10013700FFED33FD4007985006D5F0F222C398FD36
:050147000FD5F0EA22D3
:00000001FF
