:100366003F065B4F666D7D077F6F777C395E7971DF
:010376007610
:08038F00060800000000000058
:040377007F017E0084
:0B037B00EF1FAC0670011E4C70F62254
:070398007FA07E8602037BBB
:1001B400EFB40800504A9001C1F82828730201D90D
:1001C4000201DD0201E40201E80201EF0201F3028F
:1001D40001FA0201FED2A28002C2A2D2A3D2A422B8
:1001E400D2A28002C2A2C2A3D2A422D2A28002C2FC
:1001F400A2D2A3C2A422D2A28002C2A2C2A3C2A437
:0102040022D7
:10014F00EFB40800504D90015CF828287302017439
:10015F0002017802018002018402018C02019002E7
:10016F00019802019CD2A28002C2A2D2A3D2A48083
:10017F0022D2A28002C2A2C2A3D2A48016D2A2808F
:10018F0002C2A2D2A3C2A4800AD2A28002C2A2C279
:10019F00A3C2A4ED90036693F5807F327E00120315
:0501AF007BE4F5802255
:03039F00AF0A2280
:10000600E4F50F7FBC7E0212037B30B2030200C20E
:100016007BE87A0320B213D3EB9400EA9400400AFB
:10002600120377EB1B70ED1A80EA20B2030200C2BE
:100036007A017BF430B213D3EB9400EA9400400AC1
:10004600120377EB1B70ED1A80EAE4FDE4F50E7AF5
:10005600007B3C20B213D3EB9400EA9400400A12D2
:100066000377EB1B70ED1A80EA7A017BF430B21F3E
:10007600D3EB9400EA940040167F0A7E0012037BBD
:10008600050FEB1B70011AE50FD3941E40DF227497
:10009600082DF8C000E6C313D000F6E50FC3940898
:1000A600400874082DF8E64480F6E4F50F050EE5E1
:0D00B6000EC3940840990DED640470902273
:09038600D288D2A8D2AFD2B22273
:10031600C2B6C2B5E4FEEFC4131313540124FF9210
:10032600B4EF25E0FFD2B60000C2B60EBE08E7D293
:06033600B50000C2B52273
:10024600AE077F017C01E4FAEAC39E5007EF25E082
:10025600FF0A80F4E4FAEAC39D5007EC25E0FC0AA5
:1002660080F4EB6007C374FF9CFE8002AE808E8034
:0A0276001203167F647E0002037B72
:10020500D2B6D2B5E4FEEFC4131313540124FF9202
:10021500B4EF25E0FFC2B60000D2B60EBE08E7E493
:10022500FEEDC4131313540124FF92B4ED25E0FD34
:10023500C2B60000D2B60EBE08E7C2B50000D2B500
:010245002296
:1002B800AB07AA06D2B6D2B5E4FDEBAE027807CEFC
:1002C800C313CE13D8F94E24FF92B4EB25E0FBEA12
:1002D80033FAC2B60000D2B60DBD08DEC2B50000C2
:0302E800D2B5226A
:10033C008E128F131203A2AE12AF137C007D6412C7
:08034C00035412037B0203A518
:0303A200C29522DF
:0303A500D29522CC
:1002800012038612039F8F11E4FDFF12014F7D10B0
:100290007F0112014FE511C4540FFD7F0212014F7F
:1002A000E511540FFD7F0312014FE511B416D47F01
:0802B000E87E0312033C80CB41
:030003000202EB0B
:1002EB00C0E0C0D075D000C000C002C003C004C0C5
:1002FB0005C006C007120006D007D006D005D004F3
:0B030B00D003D002D000D0D0D0E032F0
:030000000200C338
:0C00C300787FE4F6D8FD75811302010A75
:1000CF00020280E493A3F8E493A34003F68001F2C5
:1000DF0008DFF48029E493A3F85407240CC8C33332
:1000EF00C4540F4420C8834004F456800146F6DF01
:1000FF00E4800B010204081020408090038FE47EFF
:10010F00019360BCA3FF543F30E509541FFEE493F5
:10011F00A360010ECF54C025E060A840B8E493A3BC
:10012F00FAE493A3F8E493A3C8C582C8CAC583CAE7
:10013F00F0A3C8C582C8CAC583CADFE9DEE780BE9F
:010397000065
:10035400EF8DF0A4A8F0CF8CF0A428CE8DF0A42EBD
:02036400FE2277
:00000001FF
