:10021D003F065B4F666D7D077F6F777C395E797129
:01022D00765A
:0B023A00EF1FAC0670011E4C70F62296
:070245007FA07E8602023A51
:04024C001202042274
:1001E800C2B6E4FEEFC4131313540124FF92B4EF14
:0C01F80025E0FFC2B6D2B60EBE08E92218
:1001C400E4FFFEC2B6FDFCEF25E0FFEE33FED2B63F
:1001D400C2B6A2B7E43342070DBD00010CED640CB6
:0401E4004C70E42255
:10020400C2B6C2B51201E87F06DFFED2B60000C254
:09021400B600001201C4D2B522AB
:10017300EFB40800504A900180F8282873020198D0
:1001830002019C0201A30201A70201AE0201B20215
:1001930001B90201BDD2A28002C2A2D2A3D2A4227B
:1001A300D2A28002C2A2C2A3D2A422D2A28002C23D
:1001B300A2D2A3C2A422D2A28002C2A2C2A3C2A478
:0101C3002219
:1000B900EFB40800504D9000C6F82828730200DEFE
:1000C9000200E20200EA0200EE0200F60200FA0271
:1000D9000102020106D2A28002C2A2D2A3D2A48046
:1000E90022D2A28002C2A2C2A3D2A48016D2A28026
:1000F90002C2A2D2A3C2A4800AD2A28002C2A2C210
:10010900A3C2A4ED90021D93F5807F327E001202F6
:050119003AE4F580222C
:10000300E4F508F5097FD412024CAB07AA06E5090B
:1000130064324508700E7FD412024CAA06AB07E483
:10002300F508F5090509E509700205087C037DE873
:10003300AF03AE0212011EAD07E4FF1200B97C0349
:100043007DE8AF03AE0212011E7E007F64CFCDCFE9
:10005300CECCCE12011EAD077F011200B97C037D09
:10006300E8AF03AE0212011E7E007F64CFCDCFCE78
:10007300CCCE12011E7E007F0ACFCDCFCECCCE12C6
:10008300011EAD077F021200B97C037DE8AF03AE0A
:100093000212011E7E007F64CFCDCFCECCCE1201E3
:1000A3001E7E007F0ACFCDCFCECCCE12011E7F03A2
:0600B3001200B902001169
:0300000002022ECB
:0C022E00787FE4F6D8FD7581090200031A
:10011E00BC000BBE0029EF8DF084FFADF022E4CCC5
:10012E00F875F008EF2FFFEE33FEEC33FCEE9DEC8E
:10013E00984005FCEE9DFE0FD5F0E9E4CEFD22EDD4
:10014E00F8F5F0EE8420D21CFEADF075F008EF2F1E
:10015E00FFED33FD4007985006D5F0F222C398FD0F
:05016E000FD5F0EA22AC
:00000001FF
