:0B014900EF1FAC0670011E4C70F62288
:1000F2008E088F09AF057D01120087E4FBAFA0785F
:1001020001EF08800123D8FDF5A0AE08AF097C00FD
:0D0112007D6412011F1201490BBB07E122A1
:0401540075A0FF2271
:04015800E4F5A02208
:10008700EFC394004031EF9408502C750B01E4F551
:100097000AE50AC39F500CE50B25E025E0F50B05A3
:1000A7000A80EEED7005E50B52A022EF700453A015
:0800B700FE22E50B1452A02209
:100003007E017C01E4FBEBC39F5009EE25E025E074
:10001300FE0B80F27B01C374089DFFEBC39F500965
:10002300EC25E025E0FC0B80EDC374FF9CF580AF6D
:10003300067E001200BF7F647E00120149E4FFFECA
:030043000200BFF9
:10004600D2B6D2B5E4FEEFC4131313540124FF92C3
:10005600B4EF25E0FFC2B60000D2B60EBE08E7E454
:10006600FEEDC4131313540124FF92B4ED25E0FDF5
:10007600C2B60000D2B60EBE08E7C2B50000D2B5C1
:010086002257
:1000BF00AB07AA06D2B6D2B5E4FDEBAE027807CEF7
:1000CF00C313CE13D8F94E24FF92B4EB25E0FBEA0D
:1000DF0033FAC2B60000D2B60DBD08DEC2B50000BD
:0300EF00D2B52265
:0C013100E4F5807D017FFE12004680F79F
:0300000002013DBD
:0C013D00787FE4F6D8FD75810B020131DB
:10011F00EF8DF0A4A8F0CF8CF0A428CE8DF0A42EF4
:02012F00FE22AE
:00000001FF
