:0B00D900EF1FAC0670011E4C70F622F9
:10006E008E088F09AF057D01120003E4FBAFA07867
:10007E0001EF08800123D8FDF5A0AE08AF097C0082
:0D008E007D641200BB1200D90BBB07E122FC
:0400E40075A0FF22E2
:0400E800E4F5A02279
:10000300EFC394004031EF9408502C750B01E4F5D5
:100013000AE50AC39F500CE50B25E025E0F50B0527
:100023000A80EEED7005E50B52A022EF700453A099
:08003300FE22E50B1452A0228D
:10003B00AB07AA06D2B6D2B5E4FDEBAE027807CE7B
:10004B00C313CE13D8F94E24FF92B4EB25E0FBEA91
:10005B0033FAC2B60000D2B60DBD08DEC2B5000041
:03006B00D2B522E9
:10009B0079FE89A0E9FF7E0012003B7801EF088012
:1000AB000123D8FDF9F5A07F507EC31200D980E45F
:030000000200CD2E
:0C00CD00787FE4F6D8FD75810B02009BE3
:1000BB00EF8DF0A4A8F0CF8CF0A428CE8DF0A42E59
:0200CB00FE2213
:00000001FF
