:0B013C00EF1FAC0670011E4C70F62295
:1000E5008E088F09AF057D01120044E4FBAFA078AF
:1000F50001EF08800123D8FDF5A0AE08AF097C000B
:0D0105007D6412011212013C0BBB07E122C8
:0401470075A0FF227E
:04014B00E4F5A02215
:10004400EFC394004031EF9408502C750B01E4F594
:100054000AE50AC39F500CE50B25E025E0F50B05E6
:100064000A80EEED7005E50B52A022EF700453A058
:08007400FE22E50B1452A0224C
:10007C007E017C01E4FBEBC39F5009EE25E025E0FB
:10008C00FE0B80F27B01C374089DFEEBC39E5009EE
:10009C00EC25E025E0FC0B80EDC374FF9CF580ADF6
:0600AC00077FFE020003C5
:10000300D2B6D2B5E4FEEFC4131313540124FF9206
:10001300B4EF25E0FFC2B60000D2B60EBE08E7E497
:10002300FEEDC4131313540124FF92B4ED25E0FD38
:10003300C2B60000D2B60EBE08E7C2B50000D2B504
:01004300229A
:1000B200AB07AA06D2B6D2B5E4FDEBAE027807CE04
:1000C200C313CE13D8F94E24FF92B4EB25E0FBEA1A
:1000D20033FAC2B60000D2B60DBD08DEC2B50000CA
:0300E200D2B52272
:0C012400E4F580E4FD7FFE12007C80F713
:03000000020130CA
:0C013000787FE4F6D8FD75810B020124F5
:10011200EF8DF0A4A8F0CF8CF0A428CE8DF0A42E01
:02012200FE22BB
:00000001FF
